{
  "contractName": "Message",
  "abi": [
    {
      "inputs": [],
      "stateMutability": "nonpayable",
      "type": "constructor"
    },
    {
      "anonymous": false,
      "inputs": [
        {
          "indexed": false,
          "internalType": "string",
          "name": "language",
          "type": "string"
        },
        {
          "indexed": false,
          "internalType": "string",
          "name": "message",
          "type": "string"
        }
      ],
      "name": "MessageChange",
      "type": "event"
    },
    {
      "inputs": [],
      "name": "author",
      "outputs": [
        {
          "internalType": "string",
          "name": "",
          "type": "string"
        }
      ],
      "stateMutability": "view",
      "type": "function",
      "constant": true
    },
    {
      "inputs": [
        {
          "internalType": "enum Message.Language",
          "name": "",
          "type": "uint8"
        },
        {
          "internalType": "uint256",
          "name": "",
          "type": "uint256"
        }
      ],
      "name": "messages",
      "outputs": [
        {
          "internalType": "string",
          "name": "",
          "type": "string"
        }
      ],
      "stateMutability": "view",
      "type": "function",
      "constant": true
    },
    {
      "inputs": [],
      "name": "owner",
      "outputs": [
        {
          "internalType": "address",
          "name": "",
          "type": "address"
        }
      ],
      "stateMutability": "view",
      "type": "function",
      "constant": true
    },
    {
      "inputs": [
        {
          "internalType": "enum Message.Language",
          "name": "_language",
          "type": "uint8"
        },
        {
          "internalType": "string",
          "name": "_message",
          "type": "string"
        }
      ],
      "name": "setMessage",
      "outputs": [
        {
          "internalType": "uint256",
          "name": "index",
          "type": "uint256"
        }
      ],
      "stateMutability": "nonpayable",
      "type": "function"
    },
    {
      "inputs": [
        {
          "internalType": "string",
          "name": "_language",
          "type": "string"
        },
        {
          "internalType": "string",
          "name": "_message",
          "type": "string"
        }
      ],
      "name": "setMessage",
      "outputs": [
        {
          "internalType": "uint256",
          "name": "index",
          "type": "uint256"
        }
      ],
      "stateMutability": "nonpayable",
      "type": "function"
    },
    {
      "inputs": [
        {
          "internalType": "string",
          "name": "_language",
          "type": "string"
        }
      ],
      "name": "getMessage",
      "outputs": [
        {
          "internalType": "string",
          "name": "",
          "type": "string"
        }
      ],
      "stateMutability": "view",
      "type": "function",
      "constant": true
    },
    {
      "inputs": [
        {
          "internalType": "enum Message.Language",
          "name": "_language",
          "type": "uint8"
        }
      ],
      "name": "getMessage",
      "outputs": [
        {
          "internalType": "string",
          "name": "",
          "type": "string"
        }
      ],
      "stateMutability": "view",
      "type": "function",
      "constant": true
    },
    {
      "inputs": [
        {
          "internalType": "string",
          "name": "_language",
          "type": "string"
        }
      ],
      "name": "allMessages",
      "outputs": [
        {
          "internalType": "string[]",
          "name": "",
          "type": "string[]"
        }
      ],
      "stateMutability": "view",
      "type": "function",
      "constant": true
    },
    {
      "inputs": [
        {
          "internalType": "enum Message.Language",
          "name": "_language",
          "type": "uint8"
        }
      ],
      "name": "allMessages",
      "outputs": [
        {
          "internalType": "string[]",
          "name": "",
          "type": "string[]"
        }
      ],
      "stateMutability": "view",
      "type": "function",
      "constant": true
    },
    {
      "inputs": [
        {
          "internalType": "string",
          "name": "_language",
          "type": "string"
        }
      ],
      "name": "lengthMessage",
      "outputs": [
        {
          "internalType": "uint256",
          "name": "",
          "type": "uint256"
        }
      ],
      "stateMutability": "view",
      "type": "function",
      "constant": true
    },
    {
      "inputs": [
        {
          "internalType": "enum Message.Language",
          "name": "_language",
          "type": "uint8"
        }
      ],
      "name": "lengthMessage",
      "outputs": [
        {
          "internalType": "uint256",
          "name": "",
          "type": "uint256"
        }
      ],
      "stateMutability": "view",
      "type": "function",
      "constant": true
    },
    {
      "inputs": [
        {
          "internalType": "enum Message.Language",
          "name": "_language",
          "type": "uint8"
        }
      ],
      "name": "getLanguage",
      "outputs": [
        {
          "internalType": "string",
          "name": "",
          "type": "string"
        }
      ],
      "stateMutability": "pure",
      "type": "function",
      "constant": true
    }
  ],
  "bytecode": "0x60806040523480156200001157600080fd5b50336000806101000a81548173ffffffffffffffffffffffffffffffffffffffff021916908373ffffffffffffffffffffffffffffffffffffffff1602179055506040518060400160405280600f81526020017f536f6c616e67652047756569726f730000000000000000000000000000000000815250600190805190602001906200009f929190620000a6565b506200015c565b828054600181600116156101000203166002900490600052602060002090601f016020900481019282620000de57600085556200012a565b82601f10620000f957805160ff19168380011785556200012a565b828001600101855582156200012a579182015b82811115620001295782518255916020019190600101906200010c565b5b5090506200013991906200013d565b5090565b5b80821115620001585760008160009055506001016200013e565b5090565b6115b1806200016c6000396000f3fe608060405234801561001057600080fd5b50600436106100b45760003560e01c80639cd38a49116100715780639cd38a49146101c7578063a5707c75146101f7578063a6c3e6b914610227578063b863dc7114610245578063d85c5fb014610275578063da974d1b146102a5576100b4565b80630cc4e8d8146100b95780631743e70c146100e95780634ea4311514610119578063880ba8701461014957806388a77ac6146101795780638da5cb5b146101a9575b600080fd5b6100d360048036038101906100ce91906110c5565b6102d5565b6040516100e09190611348565b60405180910390f35b61010360048036038101906100fe9190611035565b6103d1565b60405161011091906113e1565b60405180910390f35b610133600480360381019061012e919061100c565b61051d565b6040516101409190611348565b60405180910390f35b610163600480360381019061015e91906110c5565b61060b565b60405161017091906113e1565b60405180910390f35b610193600480360381019061018e91906110c5565b610651565b6040516101a09190611326565b60405180910390f35b6101b1610771565b6040516101be919061130b565b60405180910390f35b6101e160048036038101906101dc9190611106565b610795565b6040516101ee91906113e1565b60405180910390f35b610211600480360381019061020c919061100c565b6108e1565b60405161021e9190611326565b60405180910390f35b61022f6109f3565b60405161023c9190611348565b60405180910390f35b61025f600480360381019061025a9190611089565b610a91565b60405161026c9190611348565b60405180910390f35b61028f600480360381019061028a919061100c565b610b5a565b60405161029c9190611348565b60405180910390f35b6102bf60048036038101906102ba919061100c565b610caf565b6040516102cc91906113e1565b60405180910390f35b606060006102e283610ce8565b905060006102ef82610caf565b90506002600083600281111561030157fe5b600281111561030c57fe5b8152602001908152602001600020818154811061032557fe5b906000526020600020018054600181600116156101000203166002900480601f0160208091040260200160405190810160405280929190818152602001828054600181600116156101000203166002900480156103c35780601f10610398576101008083540402835291602001916103c3565b820191906000526020600020905b8154815290600101906020018083116103a657829003601f168201915b505050505092505050919050565b60008060009054906101000a900473ffffffffffffffffffffffffffffffffffffffff1673ffffffffffffffffffffffffffffffffffffffff163373ffffffffffffffffffffffffffffffffffffffff1614610462576040517f08c379a0000000000000000000000000000000000000000000000000000000008152600401610459906113c1565b60405180910390fd5b6002600084600281111561047257fe5b600281111561047d57fe5b8152602001908152602001600020829080600181540180825580915050600190039060005260206000200160009091909190915090805190602001906104c4929190610ecf565b5060006104d084610b5a565b90507f8ccffdfd139d295db35e560eaf274c993676306470964328bfc1a4da5fca5d1f818460405161050392919061136a565b60405180910390a161051484610caf565b91505092915050565b6060600061052a83610caf565b90506002600084600281111561053c57fe5b600281111561054757fe5b8152602001908152602001600020818154811061056057fe5b906000526020600020018054600181600116156101000203166002900480601f0160208091040260200160405190810160405280929190818152602001828054600181600116156101000203166002900480156105fe5780601f106105d3576101008083540402835291602001916105fe565b820191906000526020600020905b8154815290600101906020018083116105e157829003601f168201915b5050505050915050919050565b60008061061783610ce8565b905060016002600083600281111561062b57fe5b600281111561063657fe5b81526020019081526020016000208054905003915050919050565b6060600061065e83610ce8565b90506002600082600281111561067057fe5b600281111561067b57fe5b8152602001908152602001600020805480602002602001604051908101604052809291908181526020016000905b82821015610765578382906000526020600020018054600181600116156101000203166002900480601f0160208091040260200160405190810160405280929190818152602001828054600181600116156101000203166002900480156107515780601f1061072657610100808354040283529160200191610751565b820191906000526020600020905b81548152906001019060200180831161073457829003601f168201915b5050505050815260200190600101906106a9565b50505050915050919050565b60008054906101000a900473ffffffffffffffffffffffffffffffffffffffff1681565b60008060009054906101000a900473ffffffffffffffffffffffffffffffffffffffff1673ffffffffffffffffffffffffffffffffffffffff163373ffffffffffffffffffffffffffffffffffffffff1614610826576040517f08c379a000000000000000000000000000000000000000000000000000000000815260040161081d906113c1565b60405180910390fd5b600061083184610ce8565b90506002600082600281111561084357fe5b600281111561084e57fe5b815260200190815260200160002083908060018154018082558091505060019003906000526020600020016000909190919091509080519060200190610895929190610ecf565b507f8ccffdfd139d295db35e560eaf274c993676306470964328bfc1a4da5fca5d1f84846040516108c792919061136a565b60405180910390a16108d881610caf565b91505092915050565b6060600260008360028111156108f357fe5b60028111156108fe57fe5b8152602001908152602001600020805480602002602001604051908101604052809291908181526020016000905b828210156109e8578382906000526020600020018054600181600116156101000203166002900480601f0160208091040260200160405190810160405280929190818152602001828054600181600116156101000203166002900480156109d45780601f106109a9576101008083540402835291602001916109d4565b820191906000526020600020905b8154815290600101906020018083116109b757829003601f168201915b50505050508152602001906001019061092c565b505050509050919050565b60018054600181600116156101000203166002900480601f016020809104026020016040519081016040528092919081815260200182805460018160011615610100020316600290048015610a895780601f10610a5e57610100808354040283529160200191610a89565b820191906000526020600020905b815481529060010190602001808311610a6c57829003601f168201915b505050505081565b60026020528160005260406000208181548110610aad57600080fd5b90600052602060002001600091509150508054600181600116156101000203166002900480601f016020809104026020016040519081016040528092919081815260200182805460018160011615610100020316600290048015610b525780601f10610b2757610100808354040283529160200191610b52565b820191906000526020600020905b815481529060010190602001808311610b3557829003601f168201915b505050505081565b6060816002811115610b6857fe5b60006002811115610b7557fe5b1415610bb8576040518060400160405280600981526020017f506f7274756775657300000000000000000000000000000000000000000000008152509050610caa565b816002811115610bc457fe5b60016002811115610bd157fe5b1415610c14576040518060400160405280600781526020017f456e676c697368000000000000000000000000000000000000000000000000008152509050610caa565b816002811115610c2057fe5b600280811115610c2c57fe5b1415610c6f576040518060400160405280600781526020017f457370616e6f6c000000000000000000000000000000000000000000000000008152509050610caa565b6040517f08c379a0000000000000000000000000000000000000000000000000000000008152600401610ca1906113a1565b60405180910390fd5b919050565b6000600160026000846002811115610cc357fe5b6002811115610cce57fe5b815260200190815260200160002080549050039050919050565b6000808290506000818051906020012090507f47751c5767bbb0bdd931d7dded7762feff2f8f523644b7476475f9e271d38fe4811480610d4757507fb6b7527a8ce61414099f01d6c268da61560ca296022351925ea4fcd9220167fd81145b80610d7157507fda6880f782f0dc7b833d671f3811181ca106613a25f8f495c2b3eccb5285ae1281145b15610d8157600092505050610eca565b7fd1c432129db8fe658d890d0c8365df63782f56454b0e7138ed87553d3d4cf3ca811480610dce57507f5411878c6a5242c13ce975e31d3d12d9e9433ea21462dd40461d4cddb20769fc81145b80610df857507fd1b582da4c22f244f638af948162b87c3a1f1babc1e457a78787bd0c6ec95abb81145b15610e0857600192505050610eca565b7f3c07b527099e6326c5b81fdfd72cf62558b9c5dca43cf7e49dd237ca8200781c811480610e5557507fe697d19a1fd622753c5120af0b417423e78baca0430c98806698411f2f7845eb81145b80610e7f57507f470b9a7b50bffd35ddd80e103bdf08a6324747e34b01da0af404dc0f1b62042281145b15610e8f57600292505050610eca565b6040517f08c379a0000000000000000000000000000000000000000000000000000000008152600401610ec1906113a1565b60405180910390fd5b919050565b828054600181600116156101000203166002900490600052602060002090601f016020900481019282610f055760008555610f4c565b82601f10610f1e57805160ff1916838001178555610f4c565b82800160010185558215610f4c579182015b82811115610f4b578251825591602001919060010190610f30565b5b509050610f599190610f5d565b5090565b5b80821115610f76576000816000905550600101610f5e565b5090565b6000610f8d610f888461142d565b6113fc565b905082815260208101848484011115610fa557600080fd5b610fb08482856114ff565b509392505050565b600081359050610fc781611554565b92915050565b600082601f830112610fde57600080fd5b8135610fee848260208601610f7a565b91505092915050565b60008135905061100681611564565b92915050565b60006020828403121561101e57600080fd5b600061102c84828501610fb8565b91505092915050565b6000806040838503121561104857600080fd5b600061105685828601610fb8565b925050602083013567ffffffffffffffff81111561107357600080fd5b61107f85828601610fcd565b9150509250929050565b6000806040838503121561109c57600080fd5b60006110aa85828601610fb8565b92505060206110bb85828601610ff7565b9150509250929050565b6000602082840312156110d757600080fd5b600082013567ffffffffffffffff8111156110f157600080fd5b6110fd84828501610fcd565b91505092915050565b6000806040838503121561111957600080fd5b600083013567ffffffffffffffff81111561113357600080fd5b61113f85828601610fcd565b925050602083013567ffffffffffffffff81111561115c57600080fd5b61116885828601610fcd565b9150509250929050565b600061117e838361120a565b905092915050565b61118f816114c3565b82525050565b60006111a08261146d565b6111aa8185611490565b9350836020820285016111bc8561145d565b8060005b858110156111f857848403895281516111d98582611172565b94506111e483611483565b925060208a019950506001810190506111c0565b50829750879550505050505092915050565b600061121582611478565b61121f81856114a1565b935061122f81856020860161150e565b61123881611543565b840191505092915050565b600061124e82611478565b61125881856114b2565b935061126881856020860161150e565b61127181611543565b840191505092915050565b60006112896010836114b2565b91507f496e76616c6964206c616e6775616765000000000000000000000000000000006000830152602082019050919050565b60006112c9600a836114b2565b91507f4f6e6c79206f776e6572000000000000000000000000000000000000000000006000830152602082019050919050565b611305816114f5565b82525050565b60006020820190506113206000830184611186565b92915050565b600060208201905081810360008301526113408184611195565b905092915050565b600060208201905081810360008301526113628184611243565b905092915050565b600060408201905081810360008301526113848185611243565b905081810360208301526113988184611243565b90509392505050565b600060208201905081810360008301526113ba8161127c565b9050919050565b600060208201905081810360008301526113da816112bc565b9050919050565b60006020820190506113f660008301846112fc565b92915050565b6000604051905081810181811067ffffffffffffffff8211171561142357611422611541565b5b8060405250919050565b600067ffffffffffffffff82111561144857611447611541565b5b601f19601f8301169050602081019050919050565b6000819050602082019050919050565b600081519050919050565b600081519050919050565b6000602082019050919050565b600082825260208201905092915050565b600082825260208201905092915050565b600082825260208201905092915050565b60006114ce826114d5565b9050919050565b600073ffffffffffffffffffffffffffffffffffffffff82169050919050565b6000819050919050565b82818337600083830152505050565b60005b8381101561152c578082015181840152602081019050611511565b8381111561153b576000848401525b50505050565bfe5b6000601f19601f8301169050919050565b6003811061156157600080fd5b50565b61156d816114f5565b811461157857600080fd5b5056fea26469706673582212206ca0e49ff5ac6eb2159e83266ad646888e7ec7a8f0414287f3e03c0af0d244c764736f6c63430007060033",
  "immutableReferences": {},
  "source": "pragma solidity 0.7.6;\r\npragma abicoder v2;\r\n\r\ncontract Message {\r\n    address public owner;\r\n    string  public author;\r\n\r\n    enum Language {PT, EN, ES}\r\n    \r\n    mapping (Language => string[]) public messages;\r\n\r\n    constructor() {\r\n        owner = msg.sender;\r\n        author = \"Solange Gueiros\";\r\n    }\r\n    \r\n    event MessageChange(string language, string message);\r\n\r\n    modifier onlyOwner {\r\n        require(msg.sender == owner,\"Only owner\");\r\n        _;\r\n    }\r\n    \r\n    function setMessage(Language _language, string memory _message) public onlyOwner returns (uint index) {\r\n        messages[_language].push(_message);\r\n        string memory lang = getLanguage (_language);\r\n        emit MessageChange(lang, _message);\r\n        index = lengthMessage(_language);\r\n    }\r\n    \r\n    function setMessage(string memory _language, string memory _message) public onlyOwner returns (uint index) {\r\n        Language lang = toLanguage (_language);\r\n        messages[lang].push(_message);\r\n        emit MessageChange(_language, _message);\r\n        index = lengthMessage(lang);\r\n    }\r\n    \r\n    function getMessage(Language _language) public view returns (string memory) {\r\n        uint index = lengthMessage(_language);\r\n        return (messages[_language][index]);\r\n    }\r\n    \r\n    function getMessage(string memory _language) public view returns (string memory) {\r\n        Language lang = toLanguage (_language);\r\n        uint index = lengthMessage(lang);\r\n        return (messages[lang][index]);\r\n    }\r\n    \r\n    \r\n    function allMessages(Language _language) public view returns (string[] memory) {\r\n        return (messages[_language]);\r\n    }\r\n    \r\n    function allMessages(string memory _language) public view returns (string[] memory) {\r\n        Language lang = toLanguage (_language);\r\n        return (messages[lang]);\r\n    }\r\n    \r\n    function lengthMessage(Language _language) public view returns (uint) {\r\n        return messages[_language].length - 1;\r\n    }\r\n    \r\n    function lengthMessage(string memory _language) public view returns (uint) {\r\n        Language lang = toLanguage (_language);\r\n        return messages[lang].length - 1;\r\n    }    \r\n    \r\n    function toLanguage(string memory _language) internal pure returns (Language) {\r\n        // keccak256() only accept bytes as arguments, so we need explicit conversion\r\n        bytes memory lang = bytes(_language);\r\n        bytes32 hash = keccak256(lang);    \r\n\r\n        // Loop to check\r\n        if (hash == keccak256(\"PT\") || hash == keccak256(\"pt\") || hash == keccak256(\"Pt\") ) return Language.PT;\r\n        if (hash == keccak256(\"EN\") || hash == keccak256(\"en\") || hash == keccak256(\"En\") ) return Language.EN;        \r\n        if (hash == keccak256(\"ES\") || hash == keccak256(\"es\") || hash == keccak256(\"Es\") ) return Language.ES;\r\n        revert(\"Invalid language\");\r\n    }\r\n\r\n    function getLanguage(Language _language) public pure returns (string memory) {\r\n        //require(uint(_language) <= 2);\r\n        \r\n        // Loop through possible options\r\n        if (Language.PT == _language) return \"Portugues\";\r\n        if (Language.EN == _language) return \"English\";\r\n        if (Language.ES == _language) return \"Espanol\";\r\n        revert(\"Invalid language\");\r\n    }    \r\n}",
  "sourcePath": "C:/ETHs/ETH-BASE/messages/contracts/Message.sol",
  "compiler": {
    "name": "solc",
    "version": "0.7.6+commit.7338295f.Emscripten.clang"
  },
  "schemaVersion": "3.3.3",
  "updatedAt": "2021-01-01T22:24:07.051Z",
  "networkType": "ethereum",
  "devdoc": {
    "kind": "dev",
    "methods": {},
    "version": 1
  },
  "userdoc": {
    "kind": "user",
    "methods": {},
    "version": 1
  }
}